{
    "contractName": "ServiceCenterPayment",
    "abi": [
        {
            "inputs": [],
            "stateMutability": "nonpayable",
            "type": "constructor"
        },
        {
            "inputs": [
                {
                    "internalType": "address",
                    "name": "owner",
                    "type": "address"
                }
            ],
            "name": "OwnableInvalidOwner",
            "type": "error"
        },
        {
            "inputs": [
                {
                    "internalType": "address",
                    "name": "account",
                    "type": "address"
                }
            ],
            "name": "OwnableUnauthorizedAccount",
            "type": "error"
        },
        {
            "anonymous": false,
            "inputs": [
                {
                    "indexed": true,
                    "internalType": "uint256",
                    "name": "jobIndex",
                    "type": "uint256"
                },
                {
                    "indexed": false,
                    "internalType": "string",
                    "name": "userId",
                    "type": "string"
                },
                {
                    "indexed": false,
                    "internalType": "string",
                    "name": "jobId",
                    "type": "string"
                },
                {
                    "indexed": false,
                    "internalType": "uint256",
                    "name": "price",
                    "type": "uint256"
                }
            ],
            "name": "JobCreated",
            "type": "event"
        },
        {
            "anonymous": false,
            "inputs": [
                {
                    "indexed": true,
                    "internalType": "uint256",
                    "name": "jobIndex",
                    "type": "uint256"
                },
                {
                    "indexed": false,
                    "internalType": "uint256",
                    "name": "amount",
                    "type": "uint256"
                }
            ],
            "name": "JobPaid",
            "type": "event"
        },
        {
            "anonymous": false,
            "inputs": [
                {
                    "indexed": true,
                    "internalType": "uint256",
                    "name": "orderIndex",
                    "type": "uint256"
                },
                {
                    "indexed": false,
                    "internalType": "string",
                    "name": "userId",
                    "type": "string"
                },
                {
                    "indexed": false,
                    "internalType": "string",
                    "name": "orderId",
                    "type": "string"
                },
                {
                    "indexed": false,
                    "internalType": "uint256",
                    "name": "price",
                    "type": "uint256"
                }
            ],
            "name": "OrderCreated",
            "type": "event"
        },
        {
            "anonymous": false,
            "inputs": [
                {
                    "indexed": true,
                    "internalType": "uint256",
                    "name": "orderIndex",
                    "type": "uint256"
                },
                {
                    "indexed": false,
                    "internalType": "uint256",
                    "name": "amount",
                    "type": "uint256"
                }
            ],
            "name": "OrderPaid",
            "type": "event"
        },
        {
            "anonymous": false,
            "inputs": [
                {
                    "indexed": true,
                    "internalType": "address",
                    "name": "previousOwner",
                    "type": "address"
                },
                {
                    "indexed": true,
                    "internalType": "address",
                    "name": "newOwner",
                    "type": "address"
                }
            ],
            "name": "OwnershipTransferred",
            "type": "event"
        },
        {
            "inputs": [
                {
                    "internalType": "uint256",
                    "name": "jobIndex",
                    "type": "uint256"
                },
                {
                    "internalType": "string",
                    "name": "userId",
                    "type": "string"
                },
                {
                    "internalType": "string",
                    "name": "jobId",
                    "type": "string"
                },
                {
                    "internalType": "uint256",
                    "name": "price",
                    "type": "uint256"
                }
            ],
            "name": "addJob",
            "outputs": [],
            "stateMutability": "nonpayable",
            "type": "function"
        },
        {
            "inputs": [
                {
                    "internalType": "uint256",
                    "name": "orderIndex",
                    "type": "uint256"
                },
                {
                    "internalType": "string",
                    "name": "userId",
                    "type": "string"
                },
                {
                    "internalType": "string",
                    "name": "orderId",
                    "type": "string"
                },
                {
                    "internalType": "uint256",
                    "name": "price",
                    "type": "uint256"
                }
            ],
            "name": "addOrder",
            "outputs": [],
            "stateMutability": "nonpayable",
            "type": "function"
        },
        {
            "inputs": [
                {
                    "internalType": "uint256",
                    "name": "",
                    "type": "uint256"
                }
            ],
            "name": "jobs",
            "outputs": [
                {
                    "internalType": "string",
                    "name": "userId",
                    "type": "string"
                },
                {
                    "internalType": "string",
                    "name": "jobId",
                    "type": "string"
                },
                {
                    "internalType": "uint256",
                    "name": "price",
                    "type": "uint256"
                },
                {
                    "internalType": "bool",
                    "name": "isPaid",
                    "type": "bool"
                }
            ],
            "stateMutability": "view",
            "type": "function"
        },
        {
            "inputs": [
                {
                    "internalType": "uint256",
                    "name": "",
                    "type": "uint256"
                }
            ],
            "name": "orders",
            "outputs": [
                {
                    "internalType": "string",
                    "name": "userId",
                    "type": "string"
                },
                {
                    "internalType": "string",
                    "name": "orderId",
                    "type": "string"
                },
                {
                    "internalType": "uint256",
                    "name": "price",
                    "type": "uint256"
                },
                {
                    "internalType": "bool",
                    "name": "isPaid",
                    "type": "bool"
                }
            ],
            "stateMutability": "view",
            "type": "function"
        },
        {
            "inputs": [],
            "name": "owner",
            "outputs": [
                {
                    "internalType": "address",
                    "name": "",
                    "type": "address"
                }
            ],
            "stateMutability": "view",
            "type": "function"
        },
        {
            "inputs": [
                {
                    "internalType": "uint256",
                    "name": "jobIndex",
                    "type": "uint256"
                }
            ],
            "name": "payJob",
            "outputs": [],
            "stateMutability": "payable",
            "type": "function"
        },
        {
            "inputs": [
                {
                    "internalType": "uint256",
                    "name": "orderIndex",
                    "type": "uint256"
                }
            ],
            "name": "payOrder",
            "outputs": [],
            "stateMutability": "payable",
            "type": "function"
        },
        {
            "inputs": [],
            "name": "renounceOwnership",
            "outputs": [],
            "stateMutability": "nonpayable",
            "type": "function"
        },
        {
            "inputs": [
                {
                    "internalType": "address",
                    "name": "newOwner",
                    "type": "address"
                }
            ],
            "name": "transferOwnership",
            "outputs": [],
            "stateMutability": "nonpayable",
            "type": "function"
        },
        {
            "inputs": [
                {
                    "internalType": "address payable",
                    "name": "recipient",
                    "type": "address"
                }
            ],
            "name": "withdraw",
            "outputs": [],
            "stateMutability": "nonpayable",
            "type": "function"
        }
    ],
    "bytecode": "608080604052346071573315605e575f8054336001600160a01b0319821681178355916001600160a01b03909116907f8be0079c531659141344cd1fd0a4f28419497f9722a3daafe3b4186f6b6457e09080a3610b4790816100768239f35b631e4fbdf760e01b5f525f60045260245ffd5b5f80fdfe60806040526004361015610011575f80fd5b5f3560e01c8063180aedf3146105d75780632a685d3c146104ec57806351cff8d9146104605780635a605b441461039f578063715018a6146103485780638da5cb5b14610321578063a85c38ef146102cb578063ad966cb7146101fb578063f2fde38b146101725763f78fe41a14610087575f80fd5b602036600319011261016e57600435805f52600160205260405f2060028101549081156101345760030190815460ff81166100fc576100c96001923414610830565b60ff19161790557fc6b7ec76328116179e07b0098a6f23a195fc43cc87868d98a98ea9ec6760ebaf6020604051348152a2005b60405162461bcd60e51b815260206004820152601060248201526f129bd888185b1c9958591e481c185a5960821b6044820152606490fd5b60405162461bcd60e51b8152602060048201526012602482015271129bd888191bd95cc81b9bdd08195e1a5cdd60721b6044820152606490fd5b5f80fd5b3461016e57602036600319011261016e576004356001600160a01b0381169081900361016e576101a0610aeb565b80156101e8575f80546001600160a01b03198116831782556001600160a01b0316907f8be0079c531659141344cd1fd0a4f28419497f9722a3daafe3b4186f6b6457e09080a3005b631e4fbdf760e01b5f525f60045260245ffd5b3461016e57610209366107da565b91610212610aeb565b835f526001602052600260405f2001546102915761028c7fc5e57fec369f75d1dc51881cfb8dab9bafc5b45d7b1bf0f74aba215878fb9efa9361028060405161025a81610637565b8481528560208201528260408201525f6060820152875f52600160205260405f2061087c565b60405193849384610abd565b0390a2005b60405162461bcd60e51b81526020600482015260126024820152714a6f6220616c72656164792065786973747360701b6044820152606490fd5b3461016e57602036600319011261016e576004355f52600260205260405f206102f381610689565b61031d61030260018401610689565b9260ff6003600283015492015416906040519485948561074d565b0390f35b3461016e575f36600319011261016e575f546040516001600160a01b039091168152602090f35b3461016e575f36600319011261016e57610360610aeb565b5f80546001600160a01b0319811682556001600160a01b03167f8be0079c531659141344cd1fd0a4f28419497f9722a3daafe3b4186f6b6457e08280a3005b3461016e576103ad366107da565b916103b6610aeb565b835f526002602052600260405f2001546104245761028c7fbe12ed8f93c2b758a2d950e8ff373dcc019923a1166727388c609e7a3b514f5a936102806040516103fe81610637565b8481528560208201528260408201525f6060820152875f52600260205260405f2061087c565b60405162461bcd60e51b81526020600482015260146024820152734f7264657220616c72656164792065786973747360601b6044820152606490fd5b3461016e57602036600319011261016e576004356001600160a01b0381169081900361016e5761048e610aeb565b479081156104b0575f808093819382f1156104a557005b6040513d5f823e3d90fd5b60405162461bcd60e51b81526020600482015260146024820152734e6f2066756e647320746f20776974686472617760601b6044820152606490fd5b602036600319011261016e57600435805f52600260205260405f20600281015490811561059b5760030190815460ff81166105615761052e6001923414610830565b60ff19161790557f7c32ca00142334d942c919d338fa31921d5108c316aebd0347bcda69ee8167c96020604051348152a2005b60405162461bcd60e51b815260206004820152601260248201527113dc99195c88185b1c9958591e481c185a5960721b6044820152606490fd5b60405162461bcd60e51b815260206004820152601460248201527313dc99195c88191bd95cc81b9bdd08195e1a5cdd60621b6044820152606490fd5b3461016e57602036600319011261016e576004355f52600160205260405f206102f381610689565b90600182811c9216801561062d575b602083101461061957565b634e487b7160e01b5f52602260045260245ffd5b91607f169161060e565b6080810190811067ffffffffffffffff82111761065357604052565b634e487b7160e01b5f52604160045260245ffd5b90601f8019910116810190811067ffffffffffffffff82111761065357604052565b9060405191825f82549261069c846105ff565b808452936001811690811561070757506001146106c3575b506106c192500383610667565b565b90505f9291925260205f20905f915b8183106106eb5750509060206106c1928201015f6106b4565b60209193508060019154838589010152019101909184926106d2565b9050602092506106c194915060ff191682840152151560051b8201015f6106b4565b805180835260209291819084018484015e5f828201840152601f01601f1916010190565b9294939060609261076961077792608087526080870190610729565b908582036020870152610729565b9460408401521515910152565b81601f8201121561016e5780359067ffffffffffffffff821161065357604051926107b9601f8401601f191660200185610667565b8284526020838301011161016e57815f926020809301838601378301015290565b608060031982011261016e576004359160243567ffffffffffffffff811161016e578261080991600401610784565b916044359067ffffffffffffffff821161016e5761082991600401610784565b9060643590565b1561083757565b60405162461bcd60e51b815260206004820152601860248201527f496e636f7272656374207061796d656e7420616d6f756e7400000000000000006044820152606490fd5b9190805192835167ffffffffffffffff81116106535761089c82546105ff565b601f8111610a78575b50602094601f8211600114610a17579481929394955f92610a0c575b50508160011b915f199060031b1c19161781555b60018101602083015180519067ffffffffffffffff8211610653576108fa83546105ff565b601f81116109c7575b50602090601f831160011461095f57918060039492606096945f92610954575b50508160011b915f1990861b1c19161790555b6040840151600282015501910151151560ff80198354169116179055565b015190505f80610923565b90601f19831691845f52815f20925f5b8181106109af5750926001928592606098966003989610610998575b505050811b019055610936565b01515f1983881b60f8161c191690555f808061098b565b9293602060018192878601518155019501930161096f565b835f5260205f20601f840160051c81019160208510610a02575b601f0160051c01905b8181106109f75750610903565b5f81556001016109ea565b90915081906109e1565b015190505f806108c1565b601f19821695835f52805f20915f5b888110610a6057508360019596979810610a48575b505050811b0181556108d5565b01515f1960f88460031b161c191690555f8080610a3b565b91926020600181928685015181550194019201610a26565b825f5260205f20601f830160051c81019160208410610ab3575b601f0160051c01905b818110610aa857506108a5565b5f8155600101610a9b565b9091508190610a92565b939291610ae690610ad8604093606088526060880190610729565b908682036020880152610729565b930152565b5f546001600160a01b03163303610afe57565b63118cdaa760e01b5f523360045260245ffdfea264697066735822122002f392a510da246b1297d36786dd6b490329cf133d1470af2ed7cb469b16d68a64736f6c634300081c0033",
    "sourcePath": "c:/hhprojects/SS/cont/contracts/ServiceCenterPayment.sol",
    "compiler": {
        "name": "solc",
        "version": "0.8.28+commit.7893614a"
    },
    "functionHashes": {
        "addJob(uint256,string,string,uint256)": "ad966cb7",
        "addOrder(uint256,string,string,uint256)": "5a605b44",
        "jobs(uint256)": "180aedf3",
        "orders(uint256)": "a85c38ef",
        "owner()": "8da5cb5b",
        "payJob(uint256)": "f78fe41a",
        "payOrder(uint256)": "2a685d3c",
        "renounceOwnership()": "715018a6",
        "transferOwnership(address)": "f2fde38b",
        "withdraw(address)": "51cff8d9"
    },
    "gasEstimates": {
        "creation": {
            "codeDepositCost": "577400",
            "executionCost": "26417",
            "totalCost": "603817"
        },
        "external": {
            "addJob(uint256,string,string,uint256)": "infinite",
            "addOrder(uint256,string,string,uint256)": "infinite",
            "jobs(uint256)": "infinite",
            "orders(uint256)": "infinite",
            "owner()": "2381",
            "payJob(uint256)": "28210",
            "payOrder(uint256)": "28037",
            "renounceOwnership()": "28130",
            "transferOwnership(address)": "28299",
            "withdraw(address)": "infinite"
        }
    }
}